{
  "contractName": "DIDRegistry",
  "abi": [
    {
      "constant": true,
      "inputs": [
        {
          "name": "",
          "type": "address"
        }
      ],
      "name": "organizationOperators",
      "outputs": [
        {
          "name": "",
          "type": "uint256"
        }
      ],
      "payable": false,
      "stateMutability": "view",
      "type": "function"
    },
    {
      "constant": true,
      "inputs": [],
      "name": "contract_owner",
      "outputs": [
        {
          "name": "",
          "type": "address"
        }
      ],
      "payable": false,
      "stateMutability": "view",
      "type": "function"
    },
    {
      "constant": true,
      "inputs": [
        {
          "name": "",
          "type": "address"
        }
      ],
      "name": "DIDOperators",
      "outputs": [
        {
          "name": "",
          "type": "uint256"
        }
      ],
      "payable": false,
      "stateMutability": "view",
      "type": "function"
    },
    {
      "constant": true,
      "inputs": [
        {
          "name": "",
          "type": "bytes32"
        },
        {
          "name": "",
          "type": "address"
        }
      ],
      "name": "organizations",
      "outputs": [
        {
          "name": "",
          "type": "uint256"
        }
      ],
      "payable": false,
      "stateMutability": "view",
      "type": "function"
    },
    {
      "constant": true,
      "inputs": [
        {
          "name": "",
          "type": "address"
        }
      ],
      "name": "id_owners",
      "outputs": [
        {
          "name": "",
          "type": "address"
        }
      ],
      "payable": false,
      "stateMutability": "view",
      "type": "function"
    },
    {
      "inputs": [],
      "payable": false,
      "stateMutability": "nonpayable",
      "type": "constructor"
    },
    {
      "anonymous": false,
      "inputs": [
        {
          "indexed": true,
          "name": "newOwner",
          "type": "address"
        }
      ],
      "name": "ContractOwnerChange",
      "type": "event"
    },
    {
      "anonymous": false,
      "inputs": [
        {
          "indexed": true,
          "name": "identity",
          "type": "address"
        },
        {
          "indexed": false,
          "name": "newOwner",
          "type": "address"
        }
      ],
      "name": "DIDOwnerChanged",
      "type": "event"
    },
    {
      "anonymous": false,
      "inputs": [
        {
          "indexed": false,
          "name": "organizationType",
          "type": "bytes32"
        },
        {
          "indexed": false,
          "name": "organization",
          "type": "address"
        },
        {
          "indexed": false,
          "name": "value",
          "type": "uint256"
        }
      ],
      "name": "DIDOrganizationChanged",
      "type": "event"
    },
    {
      "anonymous": false,
      "inputs": [
        {
          "indexed": true,
          "name": "identity",
          "type": "address"
        },
        {
          "indexed": false,
          "name": "name",
          "type": "bytes32"
        },
        {
          "indexed": false,
          "name": "value",
          "type": "bytes"
        }
      ],
      "name": "DIDAttributeChange",
      "type": "event"
    },
    {
      "anonymous": false,
      "inputs": [
        {
          "indexed": true,
          "name": "identity",
          "type": "address"
        },
        {
          "indexed": false,
          "name": "name",
          "type": "bytes32"
        },
        {
          "indexed": false,
          "name": "value",
          "type": "bytes"
        }
      ],
      "name": "DIDAttributeConfirmed",
      "type": "event"
    },
    {
      "anonymous": false,
      "inputs": [
        {
          "indexed": true,
          "name": "identity",
          "type": "address"
        },
        {
          "indexed": false,
          "name": "sigV",
          "type": "uint8"
        },
        {
          "indexed": false,
          "name": "sigR",
          "type": "bytes32"
        },
        {
          "indexed": false,
          "name": "sigS",
          "type": "bytes32"
        },
        {
          "indexed": false,
          "name": "name",
          "type": "bytes32"
        },
        {
          "indexed": false,
          "name": "value",
          "type": "bytes"
        }
      ],
      "name": "SetAttributeSignedCalled",
      "type": "event"
    },
    {
      "anonymous": false,
      "inputs": [
        {
          "indexed": true,
          "name": "identity",
          "type": "address"
        },
        {
          "indexed": false,
          "name": "sigV",
          "type": "uint8"
        },
        {
          "indexed": false,
          "name": "sigR",
          "type": "bytes32"
        },
        {
          "indexed": false,
          "name": "sigS",
          "type": "bytes32"
        },
        {
          "indexed": false,
          "name": "hash",
          "type": "bytes32"
        }
      ],
      "name": "CheckSignatureCalled",
      "type": "event"
    },
    {
      "anonymous": false,
      "inputs": [
        {
          "indexed": true,
          "name": "identity",
          "type": "address"
        },
        {
          "indexed": false,
          "name": "idOwner",
          "type": "address"
        }
      ],
      "name": "SignatureOK",
      "type": "event"
    },
    {
      "anonymous": false,
      "inputs": [
        {
          "indexed": false,
          "name": "computedHash",
          "type": "bytes32"
        }
      ],
      "name": "ComputedHash",
      "type": "event"
    },
    {
      "constant": false,
      "inputs": [
        {
          "name": "newOwner",
          "type": "address"
        }
      ],
      "name": "changeContractOwner",
      "outputs": [],
      "payable": false,
      "stateMutability": "nonpayable",
      "type": "function"
    },
    {
      "constant": false,
      "inputs": [],
      "name": "getContractOwner",
      "outputs": [
        {
          "name": "",
          "type": "address"
        }
      ],
      "payable": false,
      "stateMutability": "nonpayable",
      "type": "function"
    },
    {
      "constant": false,
      "inputs": [
        {
          "name": "operator",
          "type": "address"
        },
        {
          "name": "value",
          "type": "uint256"
        }
      ],
      "name": "setDIDOperator",
      "outputs": [],
      "payable": false,
      "stateMutability": "nonpayable",
      "type": "function"
    },
    {
      "constant": false,
      "inputs": [
        {
          "name": "operator",
          "type": "address"
        }
      ],
      "name": "getDIDOperator",
      "outputs": [
        {
          "name": "",
          "type": "uint256"
        }
      ],
      "payable": false,
      "stateMutability": "nonpayable",
      "type": "function"
    },
    {
      "constant": false,
      "inputs": [
        {
          "name": "operator",
          "type": "address"
        },
        {
          "name": "value",
          "type": "uint256"
        }
      ],
      "name": "setOrganizationOperator",
      "outputs": [],
      "payable": false,
      "stateMutability": "nonpayable",
      "type": "function"
    },
    {
      "constant": false,
      "inputs": [
        {
          "name": "operator",
          "type": "address"
        }
      ],
      "name": "getOrganizationOperator",
      "outputs": [
        {
          "name": "",
          "type": "uint256"
        }
      ],
      "payable": false,
      "stateMutability": "nonpayable",
      "type": "function"
    },
    {
      "constant": false,
      "inputs": [
        {
          "name": "attribute",
          "type": "bytes32"
        },
        {
          "name": "organization",
          "type": "address"
        },
        {
          "name": "value",
          "type": "uint256"
        }
      ],
      "name": "setOrganization",
      "outputs": [],
      "payable": false,
      "stateMutability": "nonpayable",
      "type": "function"
    },
    {
      "constant": false,
      "inputs": [
        {
          "name": "attribute",
          "type": "bytes32"
        },
        {
          "name": "organization",
          "type": "address"
        }
      ],
      "name": "getOrganization",
      "outputs": [
        {
          "name": "",
          "type": "uint256"
        }
      ],
      "payable": false,
      "stateMutability": "nonpayable",
      "type": "function"
    },
    {
      "constant": true,
      "inputs": [
        {
          "name": "identity",
          "type": "address"
        }
      ],
      "name": "identityOwner",
      "outputs": [
        {
          "name": "",
          "type": "address"
        }
      ],
      "payable": false,
      "stateMutability": "view",
      "type": "function"
    },
    {
      "constant": false,
      "inputs": [
        {
          "name": "identity",
          "type": "address"
        },
        {
          "name": "newOwner",
          "type": "address"
        }
      ],
      "name": "changeDIDOwner",
      "outputs": [],
      "payable": false,
      "stateMutability": "nonpayable",
      "type": "function"
    },
    {
      "constant": false,
      "inputs": [
        {
          "name": "identity",
          "type": "address"
        },
        {
          "name": "sigV",
          "type": "uint8"
        },
        {
          "name": "sigR",
          "type": "bytes32"
        },
        {
          "name": "sigS",
          "type": "bytes32"
        },
        {
          "name": "name",
          "type": "bytes32"
        },
        {
          "name": "value",
          "type": "bytes"
        }
      ],
      "name": "setAttributeSigned",
      "outputs": [],
      "payable": false,
      "stateMutability": "nonpayable",
      "type": "function"
    },
    {
      "constant": false,
      "inputs": [
        {
          "name": "identity",
          "type": "address"
        },
        {
          "name": "owner",
          "type": "address"
        },
        {
          "name": "name",
          "type": "bytes32"
        },
        {
          "name": "value",
          "type": "bytes"
        }
      ],
      "name": "setAttribute",
      "outputs": [],
      "payable": false,
      "stateMutability": "nonpayable",
      "type": "function"
    },
    {
      "constant": false,
      "inputs": [
        {
          "name": "identity",
          "type": "address"
        },
        {
          "name": "name",
          "type": "bytes32"
        },
        {
          "name": "value",
          "type": "bytes"
        }
      ],
      "name": "confirmAttribute",
      "outputs": [],
      "payable": false,
      "stateMutability": "nonpayable",
      "type": "function"
    },
    {
      "constant": false,
      "inputs": [
        {
          "name": "sigV",
          "type": "uint8"
        },
        {
          "name": "sigR",
          "type": "bytes32"
        },
        {
          "name": "sigS",
          "type": "bytes32"
        },
        {
          "name": "hash",
          "type": "bytes32"
        }
      ],
      "name": "getSender",
      "outputs": [
        {
          "name": "",
          "type": "address"
        }
      ],
      "payable": false,
      "stateMutability": "nonpayable",
      "type": "function"
    }
  ],
  "bytecode": "0x608060405234801561001057600080fd5b50336000806101000a81548173ffffffffffffffffffffffffffffffffffffffff021916908373ffffffffffffffffffffffffffffffffffffffff1602179055506115dc806100606000396000f300608060405260043610610107576000357c0100000000000000000000000000000000000000000000000000000000900463ffffffff16806301dba7a01461010c578063188ea0331461016357806324f01e3a146101ba57806337c10f381461021d578063384f58eb1461026a5780633ead67b5146102c1578063442890d5146103045780634486ea081461035b5780634f104875146103a857806354ebe147146103ff578063593f56f7146104645780636e0a4d3214610524578063830fb26b146105db5780638733d4e81461063657806396ac742b146106b9578063ad0b84e51461073c578063ad20de1c14610793578063dd10289b1461082a578063fdbc820a146108c4575b600080fd5b34801561011857600080fd5b5061014d600480360381019080803573ffffffffffffffffffffffffffffffffffffffff169060200190929190505050610929565b6040518082815260200191505060405180910390f35b34801561016f57600080fd5b506101a4600480360381019080803573ffffffffffffffffffffffffffffffffffffffff169060200190929190505050610972565b6040518082815260200191505060405180910390f35b3480156101c657600080fd5b5061021b600480360381019080803573ffffffffffffffffffffffffffffffffffffffff169060200190929190803573ffffffffffffffffffffffffffffffffffffffff16906020019092919050505061098a565b005b34801561022957600080fd5b50610268600480360381019080803573ffffffffffffffffffffffffffffffffffffffff16906020019092919080359060200190929190505050610ad4565b005b34801561027657600080fd5b5061027f610b77565b604051808273ffffffffffffffffffffffffffffffffffffffff1673ffffffffffffffffffffffffffffffffffffffff16815260200191505060405180910390f35b3480156102cd57600080fd5b50610302600480360381019080803573ffffffffffffffffffffffffffffffffffffffff169060200190929190505050610b9c565b005b34801561031057600080fd5b50610319610c7d565b604051808273ffffffffffffffffffffffffffffffffffffffff1673ffffffffffffffffffffffffffffffffffffffff16815260200191505060405180910390f35b34801561036757600080fd5b506103a6600480360381019080803573ffffffffffffffffffffffffffffffffffffffff16906020019092919080359060200190929190505050610ca6565b005b3480156103b457600080fd5b506103e9600480360381019080803573ffffffffffffffffffffffffffffffffffffffff169060200190929190505050610d49565b6040518082815260200191505060405180910390f35b34801561040b57600080fd5b5061044e6004803603810190808035600019169060200190929190803573ffffffffffffffffffffffffffffffffffffffff169060200190929190505050610d61565b6040518082815260200191505060405180910390f35b34801561047057600080fd5b50610522600480360381019080803573ffffffffffffffffffffffffffffffffffffffff169060200190929190803560ff169060200190929190803560001916906020019092919080356000191690602001909291908035600019169060200190929190803590602001908201803590602001908080601f0160208091040260200160405190810160405280939291908181526020018383808284378201915050505050509192919290505050610d86565b005b34801561053057600080fd5b506105d9600480360381019080803573ffffffffffffffffffffffffffffffffffffffff169060200190929190803573ffffffffffffffffffffffffffffffffffffffff1690602001909291908035600019169060200190929190803590602001908201803590602001908080601f0160208091040260200160405190810160405280939291908181526020018383808284378201915050505050509192919290505050611042565b005b3480156105e757600080fd5b506106346004803603810190808035600019169060200190929190803573ffffffffffffffffffffffffffffffffffffffff16906020019092919080359060200190929190505050611151565b005b34801561064257600080fd5b50610677600480360381019080803573ffffffffffffffffffffffffffffffffffffffff16906020019092919050505061127c565b604051808273ffffffffffffffffffffffffffffffffffffffff1673ffffffffffffffffffffffffffffffffffffffff16815260200191505060405180910390f35b3480156106c557600080fd5b506106fa600480360381019080803573ffffffffffffffffffffffffffffffffffffffff169060200190929190505050611313565b604051808273ffffffffffffffffffffffffffffffffffffffff1673ffffffffffffffffffffffffffffffffffffffff16815260200191505060405180910390f35b34801561074857600080fd5b5061077d600480360381019080803573ffffffffffffffffffffffffffffffffffffffff169060200190929190505050611346565b6040518082815260200191505060405180910390f35b34801561079f57600080fd5b50610828600480360381019080803573ffffffffffffffffffffffffffffffffffffffff1690602001909291908035600019169060200190929190803590602001908201803590602001908080601f016020809104026020016040519081016040528093929190818152602001838380828437820191505050505050919291929050505061138f565b005b34801561083657600080fd5b50610882600480360381019080803560ff1690602001909291908035600019169060200190929190803560001916906020019092919080356000191690602001909291905050506114c0565b604051808273ffffffffffffffffffffffffffffffffffffffff1673ffffffffffffffffffffffffffffffffffffffff16815260200191505060405180910390f35b3480156108d057600080fd5b506109136004803603810190808035600019169060200190929190803573ffffffffffffffffffffffffffffffffffffffff16906020019092919050505061154d565b6040518082815260200191505060405180910390f35b6000600360008373ffffffffffffffffffffffffffffffffffffffff1673ffffffffffffffffffffffffffffffffffffffff168152602001908152602001600020549050919050565b60046020528060005260406000206000915090505481565b6001600360003373ffffffffffffffffffffffffffffffffffffffff1673ffffffffffffffffffffffffffffffffffffffff168152602001908152602001600020541415156109d857600080fd5b80600160008473ffffffffffffffffffffffffffffffffffffffff1673ffffffffffffffffffffffffffffffffffffffff16815260200190815260200160002060006101000a81548173ffffffffffffffffffffffffffffffffffffffff021916908373ffffffffffffffffffffffffffffffffffffffff1602179055508173ffffffffffffffffffffffffffffffffffffffff167f9071b3f486383ebd5972712e0a90e1012d2f68a61306af305f8bdc974debde8782604051808273ffffffffffffffffffffffffffffffffffffffff1673ffffffffffffffffffffffffffffffffffffffff16815260200191505060405180910390a25050565b6000809054906101000a900473ffffffffffffffffffffffffffffffffffffffff1673ffffffffffffffffffffffffffffffffffffffff163373ffffffffffffffffffffffffffffffffffffffff16141515610b2f57600080fd5b80600360008473ffffffffffffffffffffffffffffffffffffffff1673ffffffffffffffffffffffffffffffffffffffff168152602001908152602001600020819055505050565b6000809054906101000a900473ffffffffffffffffffffffffffffffffffffffff1681565b6000809054906101000a900473ffffffffffffffffffffffffffffffffffffffff1673ffffffffffffffffffffffffffffffffffffffff163373ffffffffffffffffffffffffffffffffffffffff16141515610bf757600080fd5b806000806101000a81548173ffffffffffffffffffffffffffffffffffffffff021916908373ffffffffffffffffffffffffffffffffffffffff1602179055508073ffffffffffffffffffffffffffffffffffffffff167f244d7373b30235fa9edbfb82721cab961fea5671e5ac8ca5837760a6f2a289c060405160405180910390a250565b60008060009054906101000a900473ffffffffffffffffffffffffffffffffffffffff16905090565b6000809054906101000a900473ffffffffffffffffffffffffffffffffffffffff1673ffffffffffffffffffffffffffffffffffffffff163373ffffffffffffffffffffffffffffffffffffffff16141515610d0157600080fd5b80600460008473ffffffffffffffffffffffffffffffffffffffff1673ffffffffffffffffffffffffffffffffffffffff168152602001908152602001600020819055505050565b60036020528060005260406000206000915090505481565b6002602052816000526040600020602052806000526040600020600091509150505481565b60008673ffffffffffffffffffffffffffffffffffffffff167f529e0855c133c2713e60179c1f0c57a1a151a05433c673ae930c56520033ca1c8787878787604051808660ff1660ff16815260200185600019166000191681526020018460001916600019168152602001836000191660001916815260200180602001828103825283818151815260200191508051906020019080838360005b83811015610e3b578082015181840152602081019050610e20565b50505050905090810190601f168015610e685780820380516001836020036101000a031916815260200191505b50965050505050505060405180910390a2600183878787604051600081526020016040526040518085600019166000191681526020018460ff1660ff1681526020018360001916600019168152602001826000191660001916815260200194505050505060206040516020810390808403906000865af1158015610ef0573d6000803e3d6000fd5b5050506020604051035190508073ffffffffffffffffffffffffffffffffffffffff167f56ce188f2545363c5d9947dce88df1231f39374e552870f02f06e16aca6e8d6c88604051808273ffffffffffffffffffffffffffffffffffffffff1673ffffffffffffffffffffffffffffffffffffffff16815260200191505060405180910390a28673ffffffffffffffffffffffffffffffffffffffff167fe03486ee65b4de2f9610cda461e7b7bd92adc818edf06b60815d4625a3273733848460405180836000191660001916815260200180602001828103825283818151815260200191508051906020019080838360005b83811015610ffe578082015181840152602081019050610fe3565b50505050905090810190601f16801561102b5780820380516001836020036101000a031916815260200191505b50935050505060405180910390a250505050505050565b83838073ffffffffffffffffffffffffffffffffffffffff166110648361127c565b73ffffffffffffffffffffffffffffffffffffffff1614151561108657600080fd5b8573ffffffffffffffffffffffffffffffffffffffff167fe03486ee65b4de2f9610cda461e7b7bd92adc818edf06b60815d4625a3273733858560405180836000191660001916815260200180602001828103825283818151815260200191508051906020019080838360005b8381101561110e5780820151818401526020810190506110f3565b50505050905090810190601f16801561113b5780820380516001836020036101000a031916815260200191505b50935050505060405180910390a2505050505050565b6001600460003373ffffffffffffffffffffffffffffffffffffffff1673ffffffffffffffffffffffffffffffffffffffff1681526020019081526020016000205414151561119f57600080fd5b8060026000856000191660001916815260200190815260200160002060008473ffffffffffffffffffffffffffffffffffffffff1673ffffffffffffffffffffffffffffffffffffffff168152602001908152602001600020819055507fb702f7a6e276c1e2f41004af3c284a79c8ffd6209a792d33ea82eb7756161dd38383836040518084600019166000191681526020018373ffffffffffffffffffffffffffffffffffffffff1673ffffffffffffffffffffffffffffffffffffffff168152602001828152602001935050505060405180910390a1505050565b600080600160008473ffffffffffffffffffffffffffffffffffffffff1673ffffffffffffffffffffffffffffffffffffffff16815260200190815260200160002060009054906101000a900473ffffffffffffffffffffffffffffffffffffffff16905060008173ffffffffffffffffffffffffffffffffffffffff161415156113095780915061130d565b8291505b50919050565b60016020528060005260406000206000915054906101000a900473ffffffffffffffffffffffffffffffffffffffff1681565b6000600460008373ffffffffffffffffffffffffffffffffffffffff1673ffffffffffffffffffffffffffffffffffffffff168152602001908152602001600020549050919050565b81600160026000836000191660001916815260200190815260200160002060003373ffffffffffffffffffffffffffffffffffffffff1673ffffffffffffffffffffffffffffffffffffffff168152602001908152602001600020541415156113f757600080fd5b8373ffffffffffffffffffffffffffffffffffffffff167fd98d01a55b088bb212850e53acc6182e3f4483f76bc67b13042a89c6bc46f689848460405180836000191660001916815260200180602001828103825283818151815260200191508051906020019080838360005b8381101561147f578082015181840152602081019050611464565b50505050905090810190601f1680156114ac5780820380516001836020036101000a031916815260200191505b50935050505060405180910390a250505050565b6000600182868686604051600081526020016040526040518085600019166000191681526020018460ff1660ff1681526020018360001916600019168152602001826000191660001916815260200194505050505060206040516020810390808403906000865af1158015611539573d6000803e3d6000fd5b505050602060405103519050949350505050565b600060026000846000191660001916815260200190815260200160002060008373ffffffffffffffffffffffffffffffffffffffff1673ffffffffffffffffffffffffffffffffffffffff168152602001908152602001600020549050929150505600a165627a7a72305820a3c8e797ddeec7d4f5b1cadc8d382cb1dc46847f0fec032fb7517117f3f8765c0029",
  "source": "pragma solidity ^0.4.4;\n\ncontract DIDRegistry {\n\n    address public contract_owner;\n    mapping(address => address) public id_owners;\n    mapping(bytes32 => mapping(address => uint)) public organizations; // attribute to its organization\n    mapping(address => uint) public DIDOperators;\n    mapping(address => uint) public organizationOperators;\n\n    event ContractOwnerChange(address indexed newOwner);\n    event DIDOwnerChanged(address indexed identity, address newOwner);\n    event DIDOrganizationChanged(bytes32 organizationType, address organization, uint value);\n    event DIDAttributeChange(address indexed identity, bytes32 name, bytes value);\n    event DIDAttributeConfirmed(address indexed identity, bytes32 name, bytes value);\n\n    event SetAttributeSignedCalled(address indexed identity, uint8 sigV, bytes32 sigR, bytes32 sigS, bytes32 name, bytes value);\n    event CheckSignatureCalled(address indexed identity, uint8 sigV, bytes32 sigR, bytes32 sigS, bytes32 hash);\n    event SignatureOK(address indexed identity, address idOwner);\n    event ComputedHash(bytes32 computedHash);\n\n\n    modifier onlyDIDOperator() {\n        require (DIDOperators[msg.sender] == 1);\n        _;\n    }\n\n    modifier onlyOrganizationsOperator() {\n        require (organizationOperators[msg.sender] == 1);\n        _;\n    }\n\n    modifier onlyContractOwner {\n        require (msg.sender == contract_owner);\n        _;\n    }\n\n    function changeContractOwner(address newOwner) public onlyContractOwner {\n        contract_owner = newOwner;\n        ContractOwnerChange(newOwner);\n    }\n\n    function getContractOwner() public returns(address) {\n        return contract_owner;\n    }\n\n    function setDIDOperator(address operator, uint value) public onlyContractOwner {\n        DIDOperators[operator] = value;\n    }\n\n    function getDIDOperator(address operator) public returns(uint) {\n        return DIDOperators[operator];\n    }\n\n    function setOrganizationOperator(address operator, uint value) public onlyContractOwner {\n        organizationOperators[operator] = value;\n    }\n\n    function getOrganizationOperator(address operator) public returns(uint) {\n        return organizationOperators[operator];\n    }\n\n    modifier onlyOrganization(bytes32 attribute) {\n        require (organizations[attribute][msg.sender] == 1);\n        _;\n    }\n\n    function setOrganization(bytes32 attribute, address organization, uint value) public onlyOrganizationsOperator {\n        organizations[attribute][organization] = value;\n        DIDOrganizationChanged(attribute, organization, value);\n    }\n\n    function getOrganization(bytes32 attribute, address organization) public returns(uint) {\n        return organizations[attribute][organization];\n    }\n\n    function DIDRegistry() public {\n        contract_owner = msg.sender;\n    }\n\n    function identityOwner(address identity) public view returns(address) {\n        address owner = id_owners[identity];\n        if (owner != 0x0) {\n            return owner;\n        }\n        return identity;\n    }\n\n    modifier onlyDIDOwner(address identity, address owner) {\n        require (identityOwner(identity) == owner);\n        _;\n    }\n\n    function changeDIDOwner(address identity, address newOwner) public onlyDIDOperator {\n        id_owners[identity] = newOwner;\n        DIDOwnerChanged(identity, newOwner);\n    }\n\n    function checkSignature(address identity, uint8 sigV, bytes32 sigR, bytes32 sigS, bytes32 hash) internal returns(address) {\n        CheckSignatureCalled(identity, sigV, sigR, sigS, hash);\n        address signer = ecrecover(hash, sigV, sigR, sigS);\n        require(signer == identityOwner(identity));\n        SignatureOK(signer, identity);\n        return signer;\n    }\n\n    function setAttributeSigned(address identity, uint8 sigV, bytes32 sigR, bytes32 sigS, bytes32 name, bytes value) public {\n        SetAttributeSignedCalled(identity, sigV, sigR, sigS, name, value);\n//        bytes32 hash = keccak256(this, identity, name, value);\n//        ComputedHash(hash);\n//        sigR = 0x4306864b7928f8393579ad849fd47685840cdf197c0085a5d241d28b9c6d14b3;\n//        sigS = 0x3f4d2f5912213b3c0983c01a2199759b794d1423fe66cd5076b6ca9f5f60e45f;\n//        sigV = 27;\n//        bytes32 hash = 0x8e1b031b90af6138227ffae8e7ced01f9c08f33df54becbbd82594734baadd17;\n        address signer = ecrecover(name, sigV, sigR, sigS);\n        SignatureOK(signer, identity);\n        // setAttribute(identity, checkSignature(identity, sigV, sigR, sigS, hash), name, value);\n        DIDAttributeChange(identity, name, value);\n    }\n\n    function setAttribute(address identity, address owner, bytes32 name, bytes value) public onlyDIDOwner(identity, owner) {\n        DIDAttributeChange(identity, name, value);\n    }\n\n    function confirmAttribute(address identity, bytes32 name, bytes value) public onlyOrganization(name) {\n        DIDAttributeConfirmed(identity, name, value);\n    }\n\n    function getSender(uint8 sigV, bytes32 sigR, bytes32 sigS, bytes32 hash) public returns(address) {\n        return ecrecover(hash, sigV, sigR, sigS);\n    }\n\n}\n\n",
  "sourcePath": "/Users/junius/Documents/code/src/gitlab/hardware/contracts/project/contracts/DIDRegistry.sol",
  "compiler": {
    "name": "solc",
    "version": "0.4.24+commit.e67f0147.Emscripten.clang"
  },
  "schemaVersion": "2.0.1",
  "updatedAt": "2019-04-01T10:50:48.293Z"
}